{
    "_format": "hh-sol-artifact-1",
    "contractName": "ERC20",
    "sourceName": "contracts/ERC20.sol",
    "abi": [
        {
            "inputs": [
                {
                    "internalType": "string",
                    "name": "_name",
                    "type": "string"
                },
                {
                    "internalType": "string",
                    "name": "_symbol",
                    "type": "string"
                }
            ],
            "stateMutability": "nonpayable",
            "type": "constructor"
        },
        {
            "anonymous": false,
            "inputs": [
                {
                    "indexed": true,
                    "internalType": "address",
                    "name": "from",
                    "type": "address"
                },
                {
                    "indexed": true,
                    "internalType": "address",
                    "name": "to",
                    "type": "address"
                },
                {
                    "indexed": false,
                    "internalType": "uint256",
                    "name": "value",
                    "type": "uint256"
                }
            ],
            "name": "Transfer",
            "type": "event"
        },
        {
            "inputs": [
                {
                    "internalType": "address",
                    "name": "",
                    "type": "address"
                }
            ],
            "name": "balanceOf",
            "outputs": [
                {
                    "internalType": "uint256",
                    "name": "",
                    "type": "uint256"
                }
            ],
            "stateMutability": "view",
            "type": "function"
        },
        {
            "inputs": [
                {
                    "internalType": "uint256",
                    "name": "amount",
                    "type": "uint256"
                }
            ],
            "name": "burn",
            "outputs": [],
            "stateMutability": "nonpayable",
            "type": "function"
        },
        {
            "inputs": [],
            "name": "decimals",
            "outputs": [
                {
                    "internalType": "uint8",
                    "name": "",
                    "type": "uint8"
                }
            ],
            "stateMutability": "view",
            "type": "function"
        },
        {
            "inputs": [
                {
                    "internalType": "uint256",
                    "name": "amount",
                    "type": "uint256"
                }
            ],
            "name": "mint",
            "outputs": [],
            "stateMutability": "nonpayable",
            "type": "function"
        },
        {
            "inputs": [],
            "name": "name",
            "outputs": [
                {
                    "internalType": "string",
                    "name": "",
                    "type": "string"
                }
            ],
            "stateMutability": "view",
            "type": "function"
        },
        {
            "inputs": [],
            "name": "symbol",
            "outputs": [
                {
                    "internalType": "string",
                    "name": "",
                    "type": "string"
                }
            ],
            "stateMutability": "view",
            "type": "function"
        },
        {
            "inputs": [],
            "name": "totalSupply",
            "outputs": [
                {
                    "internalType": "uint256",
                    "name": "",
                    "type": "uint256"
                }
            ],
            "stateMutability": "view",
            "type": "function"
        },
        {
            "inputs": [
                {
                    "internalType": "address",
                    "name": "recipient",
                    "type": "address"
                },
                {
                    "internalType": "uint256",
                    "name": "amount",
                    "type": "uint256"
                }
            ],
            "name": "transfer",
            "outputs": [
                {
                    "internalType": "bool",
                    "name": "",
                    "type": "bool"
                }
            ],
            "stateMutability": "nonpayable",
            "type": "function"
        }
    ],
    "bytecode": "0x60806040526040518060400160405280601481526020017f6e466163746f7269616c20496e63756261746f72000000000000000000000000815250600290805190602001906200005192919062000129565b506040518060400160405280600481526020017f4e31375200000000000000000000000000000000000000000000000000000000815250600390805190602001906200009f92919062000129565b506012600460006101000a81548160ff021916908360ff160217905550348015620000c957600080fd5b5060405162000ea538038062000ea58339818101604052810190620000ef91906200024b565b81600290805190602001906200010792919062000129565b5080600390805190602001906200012092919062000129565b5050506200042e565b828054620001379062000353565b90600052602060002090601f0160209004810192826200015b5760008555620001a7565b82601f106200017657805160ff1916838001178555620001a7565b82800160010185558215620001a7579182015b82811115620001a657825182559160200191906001019062000189565b5b509050620001b69190620001ba565b5090565b5b80821115620001d5576000816000905550600101620001bb565b5090565b6000620001f0620001ea84620002e7565b620002be565b9050828152602081018484840111156200020957600080fd5b620002168482856200031d565b509392505050565b600082601f8301126200023057600080fd5b815162000242848260208601620001d9565b91505092915050565b600080604083850312156200025f57600080fd5b600083015167ffffffffffffffff8111156200027a57600080fd5b62000288858286016200021e565b925050602083015167ffffffffffffffff811115620002a657600080fd5b620002b4858286016200021e565b9150509250929050565b6000620002ca620002dd565b9050620002d8828262000389565b919050565b6000604051905090565b600067ffffffffffffffff821115620003055762000304620003ee565b5b62000310826200041d565b9050602081019050919050565b60005b838110156200033d57808201518184015260208101905062000320565b838111156200034d576000848401525b50505050565b600060028204905060018216806200036c57607f821691505b60208210811415620003835762000382620003bf565b5b50919050565b62000394826200041d565b810181811067ffffffffffffffff82111715620003b657620003b5620003ee565b5b80604052505050565b7f4e487b7100000000000000000000000000000000000000000000000000000000600052602260045260246000fd5b7f4e487b7100000000000000000000000000000000000000000000000000000000600052604160045260246000fd5b6000601f19601f8301169050919050565b610a67806200043e6000396000f3fe608060405234801561001057600080fd5b50600436106100885760003560e01c806370a082311161005b57806370a082311461010357806395d89b4114610133578063a0712d6814610151578063a9059cbb1461016d57610088565b806306fdde031461008d57806318160ddd146100ab578063313ce567146100c957806342966c68146100e7575b600080fd5b61009561019d565b6040516100a29190610793565b60405180910390f35b6100b361022b565b6040516100c091906107d5565b60405180910390f35b6100d1610231565b6040516100de91906107f0565b60405180910390f35b61010160048036038101906100fc91906106c6565b610244565b005b61011d60048036038101906101189190610661565b61031b565b60405161012a91906107d5565b60405180910390f35b61013b610333565b6040516101489190610793565b60405180910390f35b61016b600480360381019061016691906106c6565b6103c1565b005b6101876004803603810190610182919061068a565b610498565b6040516101949190610778565b60405180910390f35b600280546101aa90610939565b80601f01602080910402602001604051908101604052809291908181526020018280546101d690610939565b80156102235780601f106101f857610100808354040283529160200191610223565b820191906000526020600020905b81548152906001019060200180831161020657829003601f168201915b505050505081565b60005481565b600460009054906101000a900460ff1681565b80600160003373ffffffffffffffffffffffffffffffffffffffff1673ffffffffffffffffffffffffffffffffffffffff1681526020019081526020016000206000828254610293919061087d565b92505081905550806000808282546102ab919061087d565b92505081905550600073ffffffffffffffffffffffffffffffffffffffff163373ffffffffffffffffffffffffffffffffffffffff167fddf252ad1be2c89b69c2b068fc378daa952ba7f163c4a11628f55a4df523b3ef8360405161031091906107d5565b60405180910390a350565b60016020528060005260406000206000915090505481565b6003805461034090610939565b80601f016020809104026020016040519081016040528092919081815260200182805461036c90610939565b80156103b95780601f1061038e576101008083540402835291602001916103b9565b820191906000526020600020905b81548152906001019060200180831161039c57829003601f168201915b505050505081565b80600160003373ffffffffffffffffffffffffffffffffffffffff1673ffffffffffffffffffffffffffffffffffffffff16815260200190815260200160002060008282546104109190610827565b92505081905550806000808282546104289190610827565b925050819055503373ffffffffffffffffffffffffffffffffffffffff16600073ffffffffffffffffffffffffffffffffffffffff167fddf252ad1be2c89b69c2b068fc378daa952ba7f163c4a11628f55a4df523b3ef8360405161048d91906107d5565b60405180910390a350565b600081600160003373ffffffffffffffffffffffffffffffffffffffff1673ffffffffffffffffffffffffffffffffffffffff16815260200190815260200160002054101561051c576040517f08c379a0000000000000000000000000000000000000000000000000000000008152600401610513906107b5565b60405180910390fd5b81600160003373ffffffffffffffffffffffffffffffffffffffff1673ffffffffffffffffffffffffffffffffffffffff168152602001908152602001600020600082825461056b919061087d565b9250508190555081600160008573ffffffffffffffffffffffffffffffffffffffff1673ffffffffffffffffffffffffffffffffffffffff16815260200190815260200160002060008282546105c19190610827565b925050819055508273ffffffffffffffffffffffffffffffffffffffff163373ffffffffffffffffffffffffffffffffffffffff167fddf252ad1be2c89b69c2b068fc378daa952ba7f163c4a11628f55a4df523b3ef8460405161062591906107d5565b60405180910390a36001905092915050565b60008135905061064681610a03565b92915050565b60008135905061065b81610a1a565b92915050565b60006020828403121561067357600080fd5b600061068184828501610637565b91505092915050565b6000806040838503121561069d57600080fd5b60006106ab85828601610637565b92505060206106bc8582860161064c565b9150509250929050565b6000602082840312156106d857600080fd5b60006106e68482850161064c565b91505092915050565b6106f8816108c3565b82525050565b60006107098261080b565b6107138185610816565b9350610723818560208601610906565b61072c816109c9565b840191505092915050565b6000610744601283610816565b915061074f826109da565b602082019050919050565b610763816108ef565b82525050565b610772816108f9565b82525050565b600060208201905061078d60008301846106ef565b92915050565b600060208201905081810360008301526107ad81846106fe565b905092915050565b600060208201905081810360008301526107ce81610737565b9050919050565b60006020820190506107ea600083018461075a565b92915050565b60006020820190506108056000830184610769565b92915050565b600081519050919050565b600082825260208201905092915050565b6000610832826108ef565b915061083d836108ef565b9250827fffffffffffffffffffffffffffffffffffffffffffffffffffffffffffffffff038211156108725761087161096b565b5b828201905092915050565b6000610888826108ef565b9150610893836108ef565b9250828210156108a6576108a561096b565b5b828203905092915050565b60006108bc826108cf565b9050919050565b60008115159050919050565b600073ffffffffffffffffffffffffffffffffffffffff82169050919050565b6000819050919050565b600060ff82169050919050565b60005b83811015610924578082015181840152602081019050610909565b83811115610933576000848401525b50505050565b6000600282049050600182168061095157607f821691505b602082108114156109655761096461099a565b5b50919050565b7f4e487b7100000000000000000000000000000000000000000000000000000000600052601160045260246000fd5b7f4e487b7100000000000000000000000000000000000000000000000000000000600052602260045260246000fd5b6000601f19601f8301169050919050565b7f494e53554646494349454e545f46554e44530000000000000000000000000000600082015250565b610a0c816108b1565b8114610a1757600080fd5b50565b610a23816108ef565b8114610a2e57600080fd5b5056fea2646970667358221220919eea54cee243ccc4af82177749714c3c21eb9edf03bccf3ba4f098a23cae4264736f6c63430008040033",
    "linkReferences": {},
    "deployedLinkReferences": {}
}